{
  "contractName": "BasicContract",
  "abi": [
    {
      "constant": true,
      "inputs": [],
      "name": "peopleCount",
      "outputs": [
        {
          "name": "",
          "type": "uint256"
        }
      ],
      "payable": false,
      "stateMutability": "view",
      "type": "function"
    },
    {
      "constant": true,
      "inputs": [
        {
          "name": "",
          "type": "uint256"
        }
      ],
      "name": "people",
      "outputs": [
        {
          "name": "name",
          "type": "string"
        },
        {
          "name": "age",
          "type": "uint256"
        }
      ],
      "payable": false,
      "stateMutability": "view",
      "type": "function"
    },
    {
      "inputs": [
        {
          "name": "_name",
          "type": "string"
        },
        {
          "name": "_age",
          "type": "uint256"
        }
      ],
      "payable": false,
      "stateMutability": "nonpayable",
      "type": "constructor"
    },
    {
      "constant": false,
      "inputs": [
        {
          "name": "_name",
          "type": "string"
        },
        {
          "name": "_age",
          "type": "uint256"
        }
      ],
      "name": "addPerson",
      "outputs": [],
      "payable": false,
      "stateMutability": "nonpayable",
      "type": "function"
    }
  ],
  "bytecode": "0x608060405234801561001057600080fd5b5060405161056e38038061056e8339810180604052604081101561003357600080fd5b81019080805164010000000081111561004b57600080fd5b8281019050602081018481111561006157600080fd5b815185600182028301116401000000008211171561007e57600080fd5b50509291906020018051906020019092919050505081600160008054815260200190815260200160002060000190805190602001906100be9291906100f3565b508060016000805481526020019081526020016000206001018190555060008081548092919060010191905055505050610198565b828054600181600116156101000203166002900490600052602060002090601f016020900481019282601f1061013457805160ff1916838001178555610162565b82800160010185558215610162579182015b82811115610161578251825591602001919060010190610146565b5b50905061016f9190610173565b5090565b61019591905b80821115610191576000816000905550600101610179565b5090565b90565b6103c7806101a76000396000f3fe608060405234801561001057600080fd5b50600436106100415760003560e01c8063267c68e0146100465780636f760f41146100645780639e7a13ad14610129575b600080fd5b61004e6101d7565b6040518082815260200191505060405180910390f35b6101276004803603604081101561007a57600080fd5b810190808035906020019064010000000081111561009757600080fd5b8201836020820111156100a957600080fd5b803590602001918460018302840111640100000000831117156100cb57600080fd5b91908080601f016020809104026020016040519081016040528093929190818152602001838380828437600081840152601f19601f820116905080830192505050505050509192919290803590602001909291905050506101dd565b005b6101556004803603602081101561013f57600080fd5b810190808035906020019092919050505061023a565b6040518080602001838152602001828103825284818151815260200191508051906020019080838360005b8381101561019b578082015181840152602081019050610180565b50505050905090810190601f1680156101c85780820380516001836020036101000a031916815260200191505b50935050505060405180910390f35b60005481565b81600160008054815260200190815260200160002060000190805190602001906102089291906102f6565b508060016000805481526020019081526020016000206001018190555060008081548092919060010191905055505050565b6001602052806000526040600020600091509050806000018054600181600116156101000203166002900480601f0160208091040260200160405190810160405280929190818152602001828054600181600116156101000203166002900480156102e65780601f106102bb576101008083540402835291602001916102e6565b820191906000526020600020905b8154815290600101906020018083116102c957829003601f168201915b5050505050908060010154905082565b828054600181600116156101000203166002900490600052602060002090601f016020900481019282601f1061033757805160ff1916838001178555610365565b82800160010185558215610365579182015b82811115610364578251825591602001919060010190610349565b5b5090506103729190610376565b5090565b61039891905b8082111561039457600081600090555060010161037c565b5090565b9056fea165627a7a72305820a9800c5d995c0c5724f75e2af8f11b5e14d0bc84e45e5b527c0050d48a1b5a640029",
  "source": "pragma solidity ^0.5.8;\r\n\r\ncontract BasicContract {\r\n    uint public peopleCount;\r\n    struct Person {\r\n        string name;\r\n        uint age;\r\n    }\r\n    mapping (uint=> Person) public people;\r\n    constructor(string memory _name, uint _age) public {\r\n        people[peopleCount].name = _name;\r\n        people[peopleCount].age = _age;\r\n        peopleCount++;\r\n    }\r\n    function addPerson(string memory _name, uint _age) public {\r\n        people[peopleCount].name = _name;\r\n        people[peopleCount].age = _age;\r\n        peopleCount++;\r\n    }\r\n}\r\n",
  "sourcePath": "E:/quorum-examples/QuorumBasics/src/contracts/BasicContract.sol",
  "compiler": {
    "name": "solc",
    "version": "0.5.8+commit.23d335f2.Emscripten.clang"
  },
  "schemaVersion": "3.0.17",
  "updatedAt": "2019-11-06T17:04:28.133Z",
  "networkType": "quorum",
  "devdoc": {
    "methods": {}
  },
  "userdoc": {
    "methods": {}
  }
}